{
  "_format": "hh-sol-artifact-1",
  "contractName": "Library",
  "sourceName": "contracts/Library.sol",
  "abi": [
    {
      "anonymous": false,
      "inputs": [
        {
          "indexed": false,
          "internalType": "address",
          "name": "Recepient",
          "type": "address"
        },
        {
          "indexed": false,
          "internalType": "uint256",
          "name": "BookId",
          "type": "uint256"
        }
      ],
      "name": "AddBook",
      "type": "event"
    },
    {
      "anonymous": false,
      "inputs": [
        {
          "indexed": false,
          "internalType": "uint256",
          "name": "bookId",
          "type": "uint256"
        },
        {
          "indexed": false,
          "internalType": "bool",
          "name": "filter",
          "type": "bool"
        }
      ],
      "name": "SetFinished",
      "type": "event"
    },
    {
      "inputs": [
        {
          "internalType": "string",
          "name": "name",
          "type": "string"
        },
        {
          "internalType": "uint16",
          "name": "year",
          "type": "uint16"
        },
        {
          "internalType": "string",
          "name": "author",
          "type": "string"
        },
        {
          "internalType": "string",
          "name": "image",
          "type": "string"
        },
        {
          "internalType": "bool",
          "name": "filter",
          "type": "bool"
        }
      ],
      "name": "addBook",
      "outputs": [],
      "stateMutability": "nonpayable",
      "type": "function"
    },
    {
      "inputs": [],
      "name": "getFiltredBooks",
      "outputs": [
        {
          "components": [
            {
              "internalType": "uint256",
              "name": "id",
              "type": "uint256"
            },
            {
              "internalType": "string",
              "name": "name",
              "type": "string"
            },
            {
              "internalType": "uint256",
              "name": "year",
              "type": "uint256"
            },
            {
              "internalType": "string",
              "name": "author",
              "type": "string"
            },
            {
              "internalType": "string",
              "name": "image",
              "type": "string"
            },
            {
              "internalType": "bool",
              "name": "filter",
              "type": "bool"
            }
          ],
          "internalType": "struct Library.Book[]",
          "name": "",
          "type": "tuple[]"
        }
      ],
      "stateMutability": "view",
      "type": "function"
    },
    {
      "inputs": [],
      "name": "getNonFilteredBooks",
      "outputs": [
        {
          "components": [
            {
              "internalType": "uint256",
              "name": "id",
              "type": "uint256"
            },
            {
              "internalType": "string",
              "name": "name",
              "type": "string"
            },
            {
              "internalType": "uint256",
              "name": "year",
              "type": "uint256"
            },
            {
              "internalType": "string",
              "name": "author",
              "type": "string"
            },
            {
              "internalType": "string",
              "name": "image",
              "type": "string"
            },
            {
              "internalType": "bool",
              "name": "filter",
              "type": "bool"
            }
          ],
          "internalType": "struct Library.Book[]",
          "name": "",
          "type": "tuple[]"
        }
      ],
      "stateMutability": "view",
      "type": "function"
    },
    {
      "inputs": [
        {
          "internalType": "uint256",
          "name": "bookId",
          "type": "uint256"
        },
        {
          "internalType": "bool",
          "name": "filter",
          "type": "bool"
        }
      ],
      "name": "setFinished",
      "outputs": [],
      "stateMutability": "nonpayable",
      "type": "function"
    }
  ],
  "bytecode": "0x608060405234801561001057600080fd5b5061112b806100206000396000f3fe608060405234801561001057600080fd5b506004361061004c5760003560e01c8063058bcbbd14610051578063508f2a221461006f5780636aa835a81461008d57806377e6e3d3146100a9575b600080fd5b6100596100c5565b60405161006691906109b4565b60405180910390f35b6100776100d6565b60405161008491906109b4565b60405180910390f35b6100a760048036038101906100a29190610a42565b6100e7565b005b6100c360048036038101906100be9190610bf1565b6101c8565b005b60606100d1600161033a565b905090565b60606100e2600061033a565b905090565b3373ffffffffffffffffffffffffffffffffffffffff166001600084815260200190815260200160002060009054906101000a900473ffffffffffffffffffffffffffffffffffffffff1673ffffffffffffffffffffffffffffffffffffffff16036101c457806000838154811061016257610161610cc0565b5b906000526020600020906006020160050160006101000a81548160ff0219169083151502179055507fa4f349f92993cc89f62be8c4bead1bd7d76d2e9c4d05da59739c6e0dd75f042c82826040516101bb929190610d0d565b60405180910390a15b5050565b60008080549050905060006040518060c001604052808381526020018881526020018761ffff168152602001868152602001858152602001841515815250908060018154018082558091505060019003906000526020600020906006020160009091909190915060008201518160000155602082015181600101908161024e9190610f42565b5060408201518160020155606082015181600301908161026e9190610f42565b5060808201518160040190816102849190610f42565b5060a08201518160050160006101000a81548160ff0219169083151502179055505050336001600083815260200190815260200160002060006101000a81548173ffffffffffffffffffffffffffffffffffffffff021916908373ffffffffffffffffffffffffffffffffffffffff1602179055507f10545577c692a22f651e69221c47ad4418e40434b36f4e2411bc54007aa8cbb9338260405161032a929190611055565b60405180910390a1505050505050565b60606000808054905067ffffffffffffffff81111561035c5761035b610a8c565b5b60405190808252806020026020018201604052801561039557816020015b61038261075f565b81526020019060019003908161037a5790505b5090506000805b6000805490508110156106a3573373ffffffffffffffffffffffffffffffffffffffff166001600083815260200190815260200160002060009054906101000a900473ffffffffffffffffffffffffffffffffffffffff1673ffffffffffffffffffffffffffffffffffffffff1614801561044c57508415156000828154811061042957610428610cc0565b5b906000526020600020906006020160050160009054906101000a900460ff161515145b15610690576000818154811061046557610464610cc0565b5b90600052602060002090600602016040518060c00160405290816000820154815260200160018201805461049890610d65565b80601f01602080910402602001604051908101604052809291908181526020018280546104c490610d65565b80156105115780601f106104e657610100808354040283529160200191610511565b820191906000526020600020905b8154815290600101906020018083116104f457829003601f168201915b505050505081526020016002820154815260200160038201805461053490610d65565b80601f016020809104026020016040519081016040528092919081815260200182805461056090610d65565b80156105ad5780601f10610582576101008083540402835291602001916105ad565b820191906000526020600020905b81548152906001019060200180831161059057829003601f168201915b505050505081526020016004820180546105c690610d65565b80601f01602080910402602001604051908101604052809291908181526020018280546105f290610d65565b801561063f5780601f106106145761010080835404028352916020019161063f565b820191906000526020600020905b81548152906001019060200180831161062257829003601f168201915b505050505081526020016005820160009054906101000a900460ff16151515158152505083838151811061067657610675610cc0565b5b6020026020010181905250818061068c906110ad565b9250505b808061069b906110ad565b91505061039c565b5060008167ffffffffffffffff8111156106c0576106bf610a8c565b5b6040519080825280602002602001820160405280156106f957816020015b6106e661075f565b8152602001906001900390816106de5790505b50905060005b828110156107535783818151811061071a57610719610cc0565b5b602002602001015182828151811061073557610734610cc0565b5b6020026020010181905250808061074b906110ad565b9150506106ff565b50809350505050919050565b6040518060c0016040528060008152602001606081526020016000815260200160608152602001606081526020016000151581525090565b600081519050919050565b600082825260208201905092915050565b6000819050602082019050919050565b6000819050919050565b6107d6816107c3565b82525050565b600081519050919050565b600082825260208201905092915050565b60005b838110156108165780820151818401526020810190506107fb565b60008484015250505050565b6000601f19601f8301169050919050565b600061083e826107dc565b61084881856107e7565b93506108588185602086016107f8565b61086181610822565b840191505092915050565b60008115159050919050565b6108818161086c565b82525050565b600060c08301600083015161089f60008601826107cd565b50602083015184820360208601526108b78282610833565b91505060408301516108cc60408601826107cd565b50606083015184820360608601526108e48282610833565b915050608083015184820360808601526108fe8282610833565b91505060a083015161091360a0860182610878565b508091505092915050565b600061092a8383610887565b905092915050565b6000602082019050919050565b600061094a82610797565b61095481856107a2565b935083602082028501610966856107b3565b8060005b858110156109a25784840389528151610983858261091e565b945061098e83610932565b925060208a0199505060018101905061096a565b50829750879550505050505092915050565b600060208201905081810360008301526109ce818461093f565b905092915050565b6000604051905090565b600080fd5b600080fd5b6109f3816107c3565b81146109fe57600080fd5b50565b600081359050610a10816109ea565b92915050565b610a1f8161086c565b8114610a2a57600080fd5b50565b600081359050610a3c81610a16565b92915050565b60008060408385031215610a5957610a586109e0565b5b6000610a6785828601610a01565b9250506020610a7885828601610a2d565b9150509250929050565b600080fd5b600080fd5b7f4e487b7100000000000000000000000000000000000000000000000000000000600052604160045260246000fd5b610ac482610822565b810181811067ffffffffffffffff82111715610ae357610ae2610a8c565b5b80604052505050565b6000610af66109d6565b9050610b028282610abb565b919050565b600067ffffffffffffffff821115610b2257610b21610a8c565b5b610b2b82610822565b9050602081019050919050565b82818337600083830152505050565b6000610b5a610b5584610b07565b610aec565b905082815260208101848484011115610b7657610b75610a87565b5b610b81848285610b38565b509392505050565b600082601f830112610b9e57610b9d610a82565b5b8135610bae848260208601610b47565b91505092915050565b600061ffff82169050919050565b610bce81610bb7565b8114610bd957600080fd5b50565b600081359050610beb81610bc5565b92915050565b600080600080600060a08688031215610c0d57610c0c6109e0565b5b600086013567ffffffffffffffff811115610c2b57610c2a6109e5565b5b610c3788828901610b89565b9550506020610c4888828901610bdc565b945050604086013567ffffffffffffffff811115610c6957610c686109e5565b5b610c7588828901610b89565b935050606086013567ffffffffffffffff811115610c9657610c956109e5565b5b610ca288828901610b89565b9250506080610cb388828901610a2d565b9150509295509295909350565b7f4e487b7100000000000000000000000000000000000000000000000000000000600052603260045260246000fd5b610cf8816107c3565b82525050565b610d078161086c565b82525050565b6000604082019050610d226000830185610cef565b610d2f6020830184610cfe565b9392505050565b7f4e487b7100000000000000000000000000000000000000000000000000000000600052602260045260246000fd5b60006002820490506001821680610d7d57607f821691505b602082108103610d9057610d8f610d36565b5b50919050565b60008190508160005260206000209050919050565b60006020601f8301049050919050565b600082821b905092915050565b600060088302610df87fffffffffffffffffffffffffffffffffffffffffffffffffffffffffffffffff82610dbb565b610e028683610dbb565b95508019841693508086168417925050509392505050565b6000819050919050565b6000610e3f610e3a610e35846107c3565b610e1a565b6107c3565b9050919050565b6000819050919050565b610e5983610e24565b610e6d610e6582610e46565b848454610dc8565b825550505050565b600090565b610e82610e75565b610e8d818484610e50565b505050565b5b81811015610eb157610ea6600082610e7a565b600181019050610e93565b5050565b601f821115610ef657610ec781610d96565b610ed084610dab565b81016020851015610edf578190505b610ef3610eeb85610dab565b830182610e92565b50505b505050565b600082821c905092915050565b6000610f1960001984600802610efb565b1980831691505092915050565b6000610f328383610f08565b9150826002028217905092915050565b610f4b826107dc565b67ffffffffffffffff811115610f6457610f63610a8c565b5b610f6e8254610d65565b610f79828285610eb5565b600060209050601f831160018114610fac5760008415610f9a578287015190505b610fa48582610f26565b86555061100c565b601f198416610fba86610d96565b60005b82811015610fe257848901518255600182019150602085019450602081019050610fbd565b86831015610fff5784890151610ffb601f891682610f08565b8355505b6001600288020188555050505b505050505050565b600073ffffffffffffffffffffffffffffffffffffffff82169050919050565b600061103f82611014565b9050919050565b61104f81611034565b82525050565b600060408201905061106a6000830185611046565b6110776020830184610cef565b9392505050565b7f4e487b7100000000000000000000000000000000000000000000000000000000600052601160045260246000fd5b60006110b8826107c3565b91507fffffffffffffffffffffffffffffffffffffffffffffffffffffffffffffffff82036110ea576110e961107e565b5b60018201905091905056fea264697066735822122060da86cf410921bbca85a4d623356a12c5c0e07a26dc8173bfb69e186c7d5a8d64736f6c63430008110033",
  "linkReferences": {},
  "deployedLinkReferences": {}
}